{
  "contractName": "Calculator",
  "abi": [
    {
      "inputs": [
        {
          "internalType": "uint256",
          "name": "a",
          "type": "uint256"
        },
        {
          "internalType": "uint256",
          "name": "b",
          "type": "uint256"
        }
      ],
      "name": "add",
      "outputs": [
        {
          "internalType": "uint256",
          "name": "",
          "type": "uint256"
        }
      ],
      "stateMutability": "pure",
      "type": "function",
      "constant": true
    },
    {
      "inputs": [
        {
          "internalType": "uint256",
          "name": "a",
          "type": "uint256"
        },
        {
          "internalType": "uint256",
          "name": "b",
          "type": "uint256"
        }
      ],
      "name": "subtract",
      "outputs": [
        {
          "internalType": "uint256",
          "name": "",
          "type": "uint256"
        }
      ],
      "stateMutability": "pure",
      "type": "function",
      "constant": true
    },
    {
      "inputs": [
        {
          "internalType": "uint256",
          "name": "a",
          "type": "uint256"
        },
        {
          "internalType": "uint256",
          "name": "b",
          "type": "uint256"
        }
      ],
      "name": "multiply",
      "outputs": [
        {
          "internalType": "uint256",
          "name": "",
          "type": "uint256"
        }
      ],
      "stateMutability": "pure",
      "type": "function",
      "constant": true
    },
    {
      "inputs": [
        {
          "internalType": "uint256",
          "name": "a",
          "type": "uint256"
        },
        {
          "internalType": "uint256",
          "name": "b",
          "type": "uint256"
        }
      ],
      "name": "divide",
      "outputs": [
        {
          "internalType": "uint256",
          "name": "",
          "type": "uint256"
        }
      ],
      "stateMutability": "pure",
      "type": "function",
      "constant": true
    }
  ],
  "bytecode": "0x608060405234801561001057600080fd5b50610511806100206000396000f3fe608060405234801561001057600080fd5b506004361061004c5760003560e01c8063165c4a16146100515780633ef5e44514610081578063771602f7146100b1578063f88e9fbf146100e1575b600080fd5b61006b60048036038101906100669190610229565b610111565b6040516100789190610278565b60405180910390f35b61009b60048036038101906100969190610229565b610127565b6040516100a89190610278565b60405180910390f35b6100cb60048036038101906100c69190610229565b610180565b6040516100d89190610278565b60405180910390f35b6100fb60048036038101906100f69190610229565b610196565b6040516101089190610278565b60405180910390f35b6000818361011f91906102c2565b905092915050565b60008282111561016c576040517f08c379a000000000000000000000000000000000000000000000000000000000815260040161016390610387565b60405180910390fd5b818361017891906103a7565b905092915050565b6000818361018e91906103db565b905092915050565b60008082116101da576040517f08c379a00000000000000000000000000000000000000000000000000000000081526004016101d19061045b565b60405180910390fd5b81836101e691906104aa565b905092915050565b600080fd5b6000819050919050565b610206816101f3565b811461021157600080fd5b50565b600081359050610223816101fd565b92915050565b600080604083850312156102405761023f6101ee565b5b600061024e85828601610214565b925050602061025f85828601610214565b9150509250929050565b610272816101f3565b82525050565b600060208201905061028d6000830184610269565b92915050565b7f4e487b7100000000000000000000000000000000000000000000000000000000600052601160045260246000fd5b60006102cd826101f3565b91506102d8836101f3565b92508282026102e6816101f3565b915082820484148315176102fd576102fc610293565b5b5092915050565b600082825260208201905092915050565b7f5375627472616374696f6e20776f756c6420726573756c7420696e2061206e6560008201527f676174697665206e756d62657200000000000000000000000000000000000000602082015250565b6000610371602d83610304565b915061037c82610315565b604082019050919050565b600060208201905081810360008301526103a081610364565b9050919050565b60006103b2826101f3565b91506103bd836101f3565b92508282039050818111156103d5576103d4610293565b5b92915050565b60006103e6826101f3565b91506103f1836101f3565b925082820190508082111561040957610408610293565b5b92915050565b7f4469766973696f6e206279207a65726f206973206e6f7420616c6c6f77656400600082015250565b6000610445601f83610304565b91506104508261040f565b602082019050919050565b6000602082019050818103600083015261047481610438565b9050919050565b7f4e487b7100000000000000000000000000000000000000000000000000000000600052601260045260246000fd5b60006104b5826101f3565b91506104c0836101f3565b9250826104d0576104cf61047b565b5b82820490509291505056fea26469706673582212206928b751348612e632984bd7ef1425bdcefc5e78e95ab6377e1ae80b3842f2a364736f6c63430008130033",
  "immutableReferences": {},
  "source": "// SPDX-License-Identifier: MIT\r\npragma solidity ^0.8.0;\r\n\r\ncontract Calculator {\r\n    function add(uint256 a, uint256 b) public pure returns (uint256) {\r\n        return a + b;\r\n    }\r\n\r\n    function subtract(uint256 a, uint256 b) public pure returns (uint256) {\r\n        require(b <= a, \"Subtraction would result in a negative number\");\r\n        return a - b;\r\n    }\r\n\r\n    function multiply(uint256 a, uint256 b) public pure returns (uint256) {\r\n        return a * b;\r\n    }\r\n\r\n    function divide(uint256 a, uint256 b) public pure returns (uint256) {\r\n        require(b > 0, \"Division by zero is not allowed\");\r\n        return a / b;\r\n    }\r\n}",
  "sourcePath": "C:\\Users\\user\\OneDrive\\java script\\2024_WEB3\\HelloDAPP\\HelloWorldDApp\\contracts\\Calculator.sol",
  "compiler": {
    "name": "solc",
    "version": "0.8.19+commit.7dd6d404.Emscripten.clang"
  },
  "schemaVersion": "3.4.16",
  "updatedAt": "2025-03-10T10:41:49.686Z",
  "networkType": "ethereum",
  "devdoc": {
    "kind": "dev",
    "methods": {},
    "version": 1
  },
  "userdoc": {
    "kind": "user",
    "methods": {},
    "version": 1
  }
}